S00D0000536C6176652E737265631C
S11300000C942A000C9418050C943F050C9447009A
S11300100C94EC050C94C5050C9447000C94470013
S11300200C9447000C9447000C9494050C946D05B3
S11300300C9447000C9422060C9447000C9447003F
S11300400C9447000C9447000C9447000C94470010
S11300500C94470011241FBECFE5D8E0DEBFCDBF0E
S113006010E0A0E6B0E0EAEDFCE002C005900D92DD
S1130070A037B107D9F720E0A0E7B0E001C01D9296
S1130080AC38B207E1F70E9441010C946B060C9462
S1130090000080917900811107C080917500811161
S11300A003C081E0809379000895809175008111E7
S11300B007C080917900811103C081E080937500AD
S11300C00895809170008F5F809370009CB190932D
S11300D07B00813019F4909378000895823021F4E4
S11300E090937A00109270000895809172008F5F4F
S11300F08093720090917900913059F59091750038
S1130100911127C090E02091760030917700281754
S1130110390728F069E780E00E947B0307C010924A
S113012072001092740089B78F7B89BF809172002E
S113013090E020917600309177008217930748F081
S113014010927900109274001092720089B78F7B1C
S113015089BF80917500813069F5809179008111A2
S113016029C08091720090E0209176003091770050
S11301702817390728F069E781E00E947B0307C04C
S1130180109272001092730089B78F7B89BF80919F
S1130190720090E0209176003091770082179307E7
S11301A048F010927500109273001092720089B793
S11301B08F7B89BF0895809171008F5F8093710058
S11301C090917900913059F590917500911127C063
S11301D090E020917C0030917D002817390728F0A9
S11301E068E780E00E947B0307C0109271001092C0
S11301F0740089B78E7F89BF8091710090E020914F
S11302007C0030917D008217930748F010927900AA
S1130210109274001092710089B78E7F89BF80910B
S11302207500813069F580917900811129C0809130
S1130230710090E020917C0030917D0028173907EF
S113024028F068E781E00E947B0307C010927100E8
S11302501092730089B78E7F89BF8091710090E0FE
S113026020917C0030917D008217930748F0109212
S11302707500109273001092710089B78E7F89BF48
S113028008950E94710281E690E090938B00809320
S11302908A008BED90E0909383008093820085E741
S11302A090E0909387008093860089E490E0909397
S11302B07F0080937E0085E590E090938100809399
S11302C080000E94FC040E9466050E94BB050E94F7
S11302D078030E94130680E80E94010280E690E001
S11302E00E941B036091780070E080E090E00E941F
S11302F02E0383E690E00E941B0386E690E00E94B2
S11303001B0360917A0070E080E090E00E942E036D
S113031083E690E00E941B038091780090E09C01AA
S1130320220F331F880F991F880F991F880F991F59
S1130330820F931F9C01992314F42D5F3F4F359531
S113034027953595279530937D0020937C008091E7
S11303507A0090E09C01220F331F880F991F880FA9
S1130360991F880F991F820F931F9C01992314F4DE
S11303702D5F3F4F35952795359527953093770019
S11303802093760080EC0E94010280E690E00E94B7
S11303901B0360917C0070917D0080E090E00E94DE
S11303A02E038BE690E00E941B036091760070910F
S11303B0770080E090E00E942E03809179008130E4
S11303C069F480917400811109C081E08093740004
S11303D089B7816089BF89B7806489BF80917500BE
S11303E0813009F078CF80917300811174CF81E05E
S11303F08093730089B7816089BF89B7806489BF9E
S11304006ACF98B3977F98BB882324F498B39068F5
S113041098BB03C098B39F7798BB86FF04C098B37A
S1130420906498BB03C098B39F7B98BB85FF04C0BE
S113043098B3906298BB03C098B39F7D98BB84FF28
S113044004C098B3906198BB03C098B39F7E98BBD7
S113045098B3946098BBEFE9FFE03197F1F700C0DF
S1130460000098B39B7F98BBEFE9FFE03197F1F769
S113047000C0000083FF04C098B3906898BB03C019
S113048098B39F7798BB82FF04C098B3906498BBDD
S113049003C098B39F7B98BB81FF04C098B390625C
S11304A098BB03C098B39F7D98BB80FF04C088B3FA
S11304B0806188BB03C088B38F7E88BB88B38460A7
S11304C088BB8FE99FE00197F1F700C0000088B373
S11304D08B7F88BBEFE9FFE03197F1F700C00000A4
S11304E0089587B38C6F87BB83E00E9401028FE776
S11304F09EE30197F1F700C0000083E00E9401022F
S11305008FE79EE30197F1F700C0000083E00E94AB
S113051001028FE79EE30197F1F700C0000082E03B
S11305200E94010288E20E94010288E00E94010206
S113053081E00E94010286E00E9401028CE00E9498
S113054001029FEF29EF80E0915020408040E1F7C5
S113055000C00000089598B3986098BB882324F4E1
S113056098B3906898BB03C098B39F7798BB86FFF5
S113057004C098B3906498BB03C098B39F7B98BBA6
S113058085FF04C098B3906298BB03C098B39F7D65
S113059098BB84FF04C098B3906198BB03C098B320
S11305A09F7E98BB98B3946098BBEFE9FFE03197C6
S11305B0F1F700C0000098B39B7F98BBEFE9FFE020
S11305C03197F1F700C0000083FF04C098B390682E
S11305D098BB03C098B39F7798BB82FF04C098B3BD
S11305E0906498BB03C098B39F7B98BB81FF04C001
S11305F098B3906298BB03C098B39F7D98BB80FF6B
S113060004C088B3806188BB03C088B38F7E88BB75
S113061088B3846088BB8FE99FE00197F1F700C03D
S1130620000088B38B7F88BBEFE9FFE03197F1F7D7
S113063000C0000008950F931F93CF938C01C0E076
S113064003C00E94AB02CF5FF801EC0FF11D808163
S11306508111F7CFCF911F910F9108951F93CF93DD
S1130660DF93CDB7DEB72A970FB6F894DEBF0FBE7F
S1130670CDBF6115710581059105D1F480E30E9418
S1130680AB022CC02AE030E040E050E00E94490672
S1130690E1E0F0E0EC0FFD1FE10FF11D17FDFA950D
S11306A0605D6083622F732F842F952F1F5F01C0BD
S11306B010E0611571058105910521F711500CC0F9
S11306C0E1E0F0E0EC0FFD1FE10FF11D17FDFA95DD
S11306D080810E94AB021150112394F72A960FB621
S11306E0F894DEBF0FBECDBFDF91CF911F91089567
S11306F08FEF84BB0895683721F0693709F4BEC0D1
S1130700089581115EC095B3916095BB95B39860CF
S113071095BBEFE1FEE43197F1F700C0000095B31B
S11307209E7F95BB95B3986095BBEFE1FEE431974E
S1130730F1F700C0000095B3946095BBEFE1FEE4CF
S11307403197F1F700C0000095B3977F95BB95B33F
S1130750946095BBEFE1FEE43197F1F700C000002F
S113076095B3926095BBEFE1FEE43197F1F700C0D9
S1130770000095B39B7F95BBEFE1FEE43197F1F761
S113078000C0000095B3916095BBEFE1FEE43197A2
S1130790F1F700C0000095B39D7F95BBEFE1FEE447
S11307A03197F1F700C0000095B3916095BB95B304
S11307B0986095BBEFE1FEE43197F1F700C00000CB
S11307C05DC095B3916095BB95B3986095BBEFE11F
S11307D0FEE43197F1F700C0000095B3977F95BB15
S11307E095B3916095BBEFE1FEE43197F1F700C05A
S11307F0000095B3926095BBEFE1FEE43197F1F709
S113080000C0000095B39E7F95BB95B3926095BBE5
S1130810EFE1FEE43197F1F700C0000095B3946076
S113082095BBEFE1FEE43197F1F700C0000095B30A
S11308309D7F95BBEFE1FEE43197F1F700C0000026
S113084095B3986095BBEFE1FEE43197F1F700C0F2
S1130850000095B39B7F95BBEFE1FEE43197F1F780
S113086000C0000095B3916095BB95B3986095BBAB
S1130870EFE1FEE43197F1F700C0000081115EC0A2
S113088085B3806185BB85B3806885BB8FE19EE4B9
S11308900197F1F700C0000085B38F7E85BB85B357
S11308A0806885BBEFE1FEE43197F1F700C00000FA
S11308B085B3806485BB8FE19EE40197F1F700C0A6
S11308C0000085B38F7785BB85B3806485BBEFE17A
S11308D0FEE43197F1F700C0000085B3806285BB68
S11308E08FE19EE40197F1F700C0000085B38F7B90
S11308F085BBEFE1FEE43197F1F700C0000085B35A
S1130900806185BB8FE19EE40197F1F700C0000090
S113091085B38F7D85BBEFE1FEE43197F1F700C02D
S1130920000085B3806885BB85B3806185BB8FE19A
S11309309EE40197F1F700C00000089585B380613B
S113094085BB85B3806885BBEFE1FEE43197F1F7A1
S113095000C0000085B38F7785BB85B3806185BBFC
S11309608FE19EE40197F1F700C0000085B3806237
S113097085BBEFE1FEE43197F1F700C0000085B3D9
S11309808F7E85BB85B3806285BB8FE19EE4019732
S1130990F1F700C0000085B3806485BBEFE1FEE49D
S11309A03197F1F700C0000085B38F7D85BB8FE1DF
S11309B09EE40197F1F700C0000085B3806885BB11
S11309C0EFE1FEE43197F1F700C0000085B38F7BBF
S11309D085BB8FE19EE40197F1F700C0000085B369
S11309E0806885BB85B3806185BBEFE1FEE4319708
S11309F0F1F700C00000089581B3877F81BB82B303
S1130A00886082BB81B38B7F81BB82B3846082BBED
S1130A1085B7886085BF85B7826085BF8BB78064E2
S1130A208BBF8BB780688BBF8FB780688FBF0895EB
S1130A301F920F920FB60F9211242F933F934F934F
S1130A405F936F937F938F939F93AF93BF93EF9332
S1130A50FF93E0917E00F0917F000995FF91EF9163
S1130A60BF91AF919F918F917F916F915F914F91C2
S1130A703F912F910F900FBE0F901F9018951F92CA
S1130A800F920FB60F9211242F933F934F935F93BE
S1130A906F937F938F939F93AF93BF93EF93FF9342
S1130AA0E0918000F09181000995FF91EF91BF9151
S1130AB0AF919F918F917F916F915F914F913F91F2
S1130AC02F910F900FBE0F901F90189583B78160E0
S1130AD083BF83B7806883BF08951F920F920FB6B8
S1130AE00F9211242F933F934F935F936F937F93B0
S1130AF08F939F93AF93BF93EF93FF93E091820003
S1130B00F09183000995FF91EF91BF91AF919F916F
S1130B108F917F916F915F914F913F912F910F90A2
S1130B200FBE0F901F9018951F920F920FB60F9241
S1130B3011242F933F934F935F936F937F938F93DE
S1130B409F93AF93BF93EF93FF93E0918400F09151
S1130B5085000995FF91EF91BF91AF919F918F917E
S1130B607F916F915F914F913F912F910F900FBEA5
S1130B700F901F90189585B5816085BD85B58068F7
S1130B8085BD8FB780688FBF08951F920F920FB6EF
S1130B900F9211242F933F934F935F936F937F93FF
S1130BA08F939F93AF93BF93EF93FF93E09186004E
S1130BB0F09187000995FF91EF91BF91AF919F91BB
S1130BC08F917F916F915F914F913F912F910F90F2
S1130BD00FBE0F901F9018951F920F920FB60F9291
S1130BE011242F933F934F935F936F937F938F932E
S1130BF09F93AF93BF93EF93FF93E0918800F0919D
S1130C0089000995FF91EF91BF91AF919F918F91C9
S1130C107F916F915F914F913F912F910F900FBEF4
S1130C200F901F90189587E689B98AB180618AB9B7
S1130C308AB188608AB98AB180688AB98FB78068B6
S1130C408FBF08951F920F920FB60F9211242F9306
S1130C503F934F935F936F937F938F939F93AF9340
S1130C60BF93EF93FF93E0918A00F0918B00099575
S1130C70FF91EF91BF91AF919F918F917F916F9170
S1130C805F914F913F912F910F900FBE0F901F9046
S1130C901895A1E21A2EAA1BBB1BFD010DC0AA1FA9
S1130CA0BB1FEE1FFF1FA217B307E407F50720F0D1
S1130CB0A21BB30BE40BF50B661F771F881F991F4C
S1130CC01A9469F760957095809590959B01AC0195
S10D0CD0BD01CF010895F894FFCF91
S1130CDA583D006D6D002059203D0020593D00000B
S9030000FC
