S00E00004D61737465722E73726563AA
S11300000C9432000C9412050C9444000C9444009B
S11300100C9444000C9444000C9444000C9444004C
S11300200C9444000C9444000C9444000C944F052C
S11300300C9444000C9444000C9444000C9444002C
S11300400C9444000C9444000C9444000C9444001C
S11300500C94440056015A015E01620166016A0172
S11300606E01720111241FBECFE5D8E0DEBFCDBF03
S113007020E0A0E6B0E001C01D92AE36B207E1F781
S11300800E9490000C94CD050C94000080916700B0
S11300908F5F809367000895809160008F5F8093E5
S11300A06000882351F0829B08C00E94390581E0DA
S11300B080936000809365000895823081F580917B
S11300C06500813061F582B7A0916700B0E0BA2F76
S11300D0AA27A80FB11D20E03AEC41E250E00E94AB
S11300E0AB0520E034E244EF50E00E948305DA01DE
S11300F0C901880F991FAA1FBB1FB695A79597958D
S11301008795B695A79597958795809368001092E3
S113011065000E94440510926000109267000895E3
S11301208CE490E090936B0080936A0086E490E006
S113013090936D0080936C000E9402050E94190147
S11301400E94DA020E94A0030E9476050E94940491
S113015080E80E9430030E94A804C82F682F70E032
S113016080E090E00E944A04D091680080EC0E94F4
S113017030036D2F70E080E090E00E944A048C2FE1
S11301800E947F058FE99FE00197F1F700C000000E
S11301908D2F0E947F056D2F8C2F0E9467029FEF89
S11301A020E782E0915020408040E1F700C0000049
S11301B06D2F8C2F0E94AE01CBCF8F30B9F018F485
S11301C0882331F00895803F51F08F3FB1F00895B6
S11301D085B3877F85BB85B38F7E85BB089585B343
S11301E0886085BB85B38F7E85BB089585B3877F83
S11301F085BB85B3806185BB089585B3886085BB65
S113020085B3806185BB08958BBB85B38D7F85BB2A
S113021085B38E7F85BB8FE891E00197F1F700C02D
S1130220000085B3816085BB95E39A95F1F70000E2
S113023008958FEF84BB8ABB8BBB85B3826085BB7B
S113024085B3816085BB85B3846085BB85B38B7FB3
S113025085BB85E38A95F1F7000085B3846085BB8F
S113026085E38A95F1F7000085B38D7F85BB85B35F
S1130270886085BB85B3806185BB8FE30E940401E0
S113028080EC0E94040185B3877F85BB85B38F7E94
S113029085BB85B3816085BB089590E08830910566
S11302A020F5FC01E65DFF4F0C94A50588EB0E9448
S11302B00401089589EB0E94040108958AEB0E94C9
S11302C0040108958BEB0E94040108958CEB0E94B5
S11302D0040108958DEB0E94040108958EEB0E94A1
S11302E0040108958FEB0E9404010895CF93DF93D6
S11302F06830E0F48823D4F0D62FC82F803458F423
S113030080EF0E94DD008D2F0E944D018C2F8064B0
S11303100E9404010BC0C0548FE00E94DD008D2FA9
S11303200E944D018C2F80640E940401DF91CF91C3
S113033008958BBB85B3826085BB85B38E7F85BBF7
S11303408FE891E00197F1F700C0000085B3816068
S113035085BB95E39A95F1F7000008951F93CF9319
S1130360DF93603408F069C088230CF466C0C82F9A
S1130370D62FD695D695D695803478F580EF0E9401
S1130380DD0087E08D1B0E944D018C2F80640E944C
S1130390040180E00E9499018FEF8C0F80640E9419
S11303A0040180E00E9499018EEF8C0F80640E940A
S11303B0040180E00E94990181E08C0F80640E9416
S11303C0040180E00E94990182E08C0F80640E9405
S11303D0040180E00E94990130C010EC180F8FE0F6
S11303E00E94DD0087E08D1B0E944D01812F8064F7
S11303F00E94040180E00E9499018FEB8C0F8064BD
S11304000E94040180E00E9499018EEB8C0F8064AD
S11304100E94040180E00E94990181EC8C0F8064A9
S11304200E94040180E00E94990182EC8C0F806498
S11304300E94040180E00E949901DF91CF911F91F5
S113044008951F93CF93DF936034E8F58823DCF19C
S1130450D82F162F169516951695812F880F880F6D
S1130460880FC62FC81BD034B8F480EF0E94DD007B
S113047087E0811B0E944D018D2F80640E9404013E
S113048027E030E02C1B310981E001C0880F2A9558
S1130490EAF70E94990117C0D0548FE00E94DD0052
S11304A087E0811B0E944D018D2F80640E9404010E
S11304B027E030E02C1B310981E001C0880F2A9528
S11304C0EAF70E949901DF91CF911F9108951F933C
S11304D0CF93DF93603408F069C088230CF466C0BE
S11304E0C82FD62FD695D695D695803478F580EF3B
S11304F00E94DD0087E08D1B0E944D018C2F8064DB
S11305000E9404018CE70E9499018FEF8C0F806494
S11305100E94040180E10E9499018EEF8C0F806497
S11305200E94040180E10E94990181E08C0F8064A3
S11305300E94040180E10E94990182E08C0F806492
S11305400E94040180E10E94990130C010EC180F50
S11305508FE00E94DD0087E08D1B0E944D01812FFA
S113056080640E9404018CE70E9499018FEB8C0F38
S113057080640E94040180E10E9499018EEB8C0F3B
S113058080640E94040180E10E94990181EC8C0F37
S113059080640E94040180E10E94990182EC8C0F26
S11305A080640E94040180E10E949901DF91CF914F
S11305B01F910895CF93C1E005C062E08C2F0E9483
S11305C02102CF5FCC23CCF788EB0E94040180E4A6
S11305D00E94040180E00E949901C0E00CC061E027
S11305E081E00E94210287E08C1B0E944D018FEF65
S11305F00E949901CF5FC83090F367E08DE70E94B5
S1130600760188EA0E94990167E08EE70E947601EC
S113061080E70E94990160E080E00E94760184E016
S11306200E94990160E081E00E94760182E00E94CC
S1130630990160E083E00E94760182E00E949901C2
S113064060E084E00E94760184E00E94990167E002
S113065081E00E94760180E20E949901CF91089581
S113066098B3977F98BB882324F498B3906898BB79
S113067003C098B39F7798BB86FF04C098B3906477
S113068098BB03C098B39F7B98BB85FF04C098B305
S1130690906298BB03C098B39F7D98BB84FF04C04D
S11306A098B3906198BB03C098B39F7E98BB98B3EE
S11306B0946098BBEFE9FFE03197F1F700C00000C8
S11306C098B39B7F98BBEFE9FFE03197F1F700C047
S11306D0000083FF04C098B3906898BB03C098B32C
S11306E09F7798BB82FF04C098B3906498BB03C003
S11306F098B39F7B98BB81FF04C098B3906298BB6A
S113070003C098B39F7D98BB80FF04C088B3806109
S113071088BB03C088B38F7E88BB88B3846088BBE2
S11307208FE99FE00197F1F700C0000088B38B7F49
S113073088BBEFE9FFE03197F1F700C000000895AE
S113074087B38C6F87BB83E00E9430038FE79EE3FF
S11307500197F1F700C0000083E00E9430038FE7A7
S11307609EE30197F1F700C0000083E00E9430038C
S11307708FE79EE30197F1F700C0000082E00E943A
S1130780300388E20E94300388E00E94300381E055
S11307900E94300386E00E9430038CE00E94300304
S11307A09FEF29EF80E0915020408040E1F700C0A6
S11307B00000089598B3986098BB882324F498B3F4
S11307C0906898BB03C098B39F7798BB86FF04C01A
S11307D098B3906498BB03C098B39F7B98BB85FF84
S11307E004C098B3906298BB03C098B39F7D98BB34
S11307F084FF04C098B3906198BB03C098B39F7EF4
S113080098BB98B3946098BBEFE9FFE03197F1F798
S113081000C0000098B39B7F98BBEFE9FFE03197DD
S1130820F1F700C0000083FF04C098B3906898BB40
S113083003C098B39F7798BB82FF04C098B39064B9
S113084098BB03C098B39F7B98BB81FF04C098B347
S1130850906298BB03C098B39F7D98BB80FF04C08F
S113086088B3806188BB03C088B38F7E88BB88B39C
S1130870846088BB8FE99FE00197F1F700C0000016
S113088088B38B7F88BBEFE9FFE03197F1F700C0B5
S1130890000008951F93CF93DF93CDB7DEB72A9757
S11308A00FB6F894DEBF0FBECDBF6115710581058B
S11308B09105D1F480E30E94DA032CC02AE030E0F1
S11308C040E050E00E948305E1E0F0E0EC0FFD1F02
S11308D0E10FF11D17FDFA95605D6083622F732FA0
S11308E0842F952F1F5F01C010E0611571058105EC
S11308F0910521F711500CC0E1E0F0E0EC0FFD1F71
S1130900E10FF11D17FDFA9580810E94DA03115061
S1130910112394F72A960FB6F894DEBF0FBECDBF0D
S1130920DF91CF911F9108951FBC8EB581608EBD5C
S11309308EB582608EBD8EB580648EBD8EB58068A6
S11309408EBD88B7806288BF81B3806881BB0895FB
S11309508EB580648EBD88B7806288BF82B380689C
S113096082BB82B3886082BB87EC90E00197F1F789
S113097000C0000082B38F7782BB82B3877F82BBC3
S113098008B605FEFDCF86B597B5909364008093B5
S1130990630088B7806288BF8EB58F7B8EBD08B632
S11309A005FEFDCF86B597B59093620080936100F4
S11309B088B7806288BF1DBC1CBCA0916100B09147
S11309C062008091630090916400A81BB90B20E041
S11309D03AEC41E250E00E94AB0520E034E244EFFF
S11309E050E00E948305DA01C901880F991FAA1FEC
S11309F0BB1FB695A79597958795B695A795979597
S1130A00879508958FB780688FBF81B38B7F81BB33
S1130A1081B3886081BB85B7816085BF8BB78064F3
S1130A208BBF08951F920F920FB60F9211242F932C
S1130A303F934F935F936F937F938F939F93AF9362
S1130A40BF93EF93FF93E0916A00F0916B000995D7
S1130A50FF91EF91BF91AF919F918F917F916F9192
S1130A605F914F913F912F910F900FBE0F901F9068
S1130A70189583B7816083BF83B7826083BF89B7CA
S1130A80816089BF12BE089583B78E7F83BF83B709
S1130A908D7F83BF89B78E7F89BF12BE08951F9251
S1130AA00F920FB60F9211242F933F934F935F939E
S1130AB06F937F938F939F93AF93BF93EF93FF9322
S1130AC0E0916C00F0916D000995FF91EF91BF9159
S1130AD0AF919F918F917F916F915F914F913F91D2
S1130AE02F910F900FBE0F901F90189587E689B92C
S1130AF08AB180618AB98AB188608AB908958CB94B
S1130B005E9BFECF0895A1E21A2EAA1BBB1BFD011A
S1130B100DC0AA1FBB1FEE1FFF1FA217B307E407D8
S1130B20F50720F0A21BB30BE40BF50B661F771F30
S1130B30881F991F1A9469F7609570958095909510
S1130B409B01AC01BD01CF010895EE0FFF1F05907D
S1130B50F491E02D0994B7FF0C94B3050E94B305FA
S1130B60821B930B08950E94BE05A59F900DB49F10
S1130B70900DA49F800D911D11240895A29FB00192
S1130B80B39FC001A39F700D811D1124911DB29FBD
S1110B90700D811D1124911D0895F894FFCF5E
S9030000FC
